:030000000209D71B
:0C09D700787FE4F6D8FD758107020A1E47
:030E3C008103002F
:100AED00120BC27803E2FF7E00120DB67802EFF210
:100AFD007802E2B40900504F900B0CF828287302CD
:100B0D000B27020B2C020B31020B36020B3B020B97
:100B1D0040020B45020B4A020B4F120C1280D112F0
:100B2D00033B80CC12076A80C712064580C21208AB
:100B3D008380BD120A6380B812092F80B31204F5A9
:0D0B4D0080AE120B5A80A9E47802F280A35A
:100C1200120D53120D317800EEF208EFF2E4FDED01
:100C2200C3941E7480948050257800E2FE08E27816
:100C320002CEC313CE13D8F9FF74042DF8EFF27469
:100C4200222DF8EFF274402DF8EFF20D80D1120D43
:090C52000A120CA6EF640170BA4D
:010C5B002276
:10033B00120D53120D317800EEF208EFF2C3945602
:10034B00EE94015072E47862F27862E2C3941E7408
:10035B0080948050627800E2FC08E2FDE412020611
:10036B007BA47A70793D783F1200FBA804A905AAFB
:10037B0006AB07E4FFFE7D7F7C4312000612023FB3
:10038B007862E22404F8EFF27800E2FC08E2FDE484
:10039B001202067BA47A70793D783F1200FB1202A1
:1003AB003F7862E2FE2422F8EFF274402EF8E4F27A
:1003BB007862E204F280927800E2FE08E2FFC394D6
:1003CB0056EE94015003020456EF94ACEE94025097
:1003DB007AE47862F27862E2FFC3941E74809480B0
:1003EB00506974042FF8E4F27801E224AAFD18E2B4
:1003FB0034FEFCE41202067BA47A70793D783F123E
:10040B0000FBA804A905AA06AB07E4FFFE7D7F7CD1
:10041B004312000612023F7862E22422F8EFF278D0
:10042B0001E224AAFD18E234FEFCE41202067BA4CE
:10043B007A70793D783F1200FB12023F7862E2241A
:10044B0040F8EFF27862E204F2808A7800E2FE086C
:10045B00E2C394ACEE940250030204E6EE94045013
:10046B007AE47862F27862E2C3941E7480948050CE
:10047B006A7801E22454FD18E234FDFCE412020612
:10048B007BA47A70793D783F1200FB12023F7862B1
:10049B00E2FE2404F8EFF274222EF8E4F27801E283
:1004AB002454FD18E234FDFCE41202067BA47A709E
:1004BB00793D783F1200FBA804A905AA06AB07E417
:1004CB00FFFE7D7F7C4312000612023F7862E2241E
:1004DB0040F8EFF27862E204F2808A120D0A120CF5
:0904EB00A6EF6401600302033E68
:0104F40022E5
:10076A00E47863F2120D53E47864F208F2120D3160
:10077A007800EEF208EFF2C37864E294015036E4AE
:10078A007862F27862E2C3941E748094805026786C
:10079A006408E2FFC374FF9FFE7862E2FD2404F856
:1007AA00EEF274222DF8EFF274402DF8E4F278623A
:1007BA00E204F280CE7864E2FEC3EE9401403BEE9E
:1007CA0094025036E47862F27862E2FFC3941E74AF
:1007DA00809480502574042FF8E4F2786408E2FECD
:1007EA00C374FF9EFD74222FF8EDF27862E2244072
:1007FA00F8EEF27862E204F280CEC37864E2940200
:10080A004036E47862F27862E2C3941E748094807F
:10081A005026786408E2FF7862E2FE2404F8EFF2D8
:10082A0074222EF8E4F2C374FF9FFF74402EF8EF8F
:10083A00F27862E204F280CE7800E2FE08E2FF7CFF
:10084A00007D641202C0120CF1120D0A120CA6EFFE
:10085A0064017006786304F280147865E22401F278
:10086A0018E23400F2C3E294035003020777786374
:08087A00E26401600302077152
:010882002253
:10064500E47863F208F2120D53E47862F27862E21C
:10065500C3941E748094805028E2FF75F008A4FEB0
:10066500C374FF9EFD74042FF8EDF27862E2FF2457
:1006750022F8EEF274402FF8E4F27862E204F28098
:10068500CC120D317800EEF208EFF27864E224081E
:10069500F218E23400F2D308E294FF18E294024023
:1006A50004E4F208F27863E2FE08E2FFC3EE940187
:1006B500500FC374FF9F7804F27822EFF2E478407C
:1006C500F27863E2FEC3EE94014019EE94025014F1
:1006D500E47804F2786308E2FFC374FF9F7822F29E
:1006E5007840EFF27863E2FE08E2FFC3EE94024041
:1006F5000E7804EFF2E47822F274FF9F7840F278E6
:1007050062741DF27862E2D3940074809480403262
:10071500E2FF2403F8E2FE74042FF8EEF27862E2B9
:10072500FF2421F8E2FE74222FF8EEF27862E2FF50
:10073500243FF8E2FE74402FF8EEF27862E214F2FC
:1007450080C27800E2FE08E27805CEC313CE13D846
:10075500F9240A120CED120D0A120CA6EF640160C1
:0407650003020686FF
:01076900226D
:10088300120D53120D317800EEF208EFF218E2FE6A
:1008930008E2FF7C007D641202C0AB07E4FAEAC3FE
:1008A300941E74809480501574042AF8E4F2742220
:1008B3002AF8E4F274402AF8E4F20A80E1E4FAEB5D
:1008C3002405FFE433FEEAC39FEE6480F874809846
:1008D300504B74042AF8E4F274222AF8E4F2EB246D
:1008E30005FDE433FC7E007FFF1202C0EF8AF0A413
:1008F300F9C374FF99FF74402AF8EFF2EAFDC37459
:100903001E9DFD74032DF8EFF274212DF8E4F2C35C
:1009130074FF99FF743F2DF8EFF20A80A2120D0ABB
:0B092300120CA6EF64016003020886BE
:01092E0022A6
:100A6300120D53120D317800EEF208EFF27862E2C4
:100A73007017120C5CEF7804F2120C5CEF7822F220
:100A8300120C5CEF7840F2800F7805E218F27823BD
:100A9300E218F27841E218F27862E204F2E275F0C9
:100AA3000A84E5F0F27F1DEFD394007480948040B4
:100AB3002774032FF8E2FE74042FF8EEF274212F4B
:100AC300F8E2FE74222FF8EEF2743F2FF8E2FE7480
:100AD300402FF8EEF21F80CF120CDC120D0A120C1D
:090AE300A6EF64016003020A663B
:010AEC0022E7
:10092F00120D53120D317800EEF208EFF27862E2F9
:10093F007014120C5CEF7804F2120C5CEF7822F258
:10094F00120C5CEF802D7862E2FFC39410748094D8
:10095F00805019EF5401701E7804E2C313F278220D
:10096F00E2C313F27840E2C313F2800AE47804F290
:10097F007822F27840F27F1DEFD394007480948038
:10098F00402774032FF8E2FE74042FF8EEF274215F
:10099F002FF8E2FE74222FF8EEF2743F2FF8E2FEEA
:1009AF0074402FF8EEF21F80CF120CDC120D0A12DA
:1009BF000CA6EF640160107862E204F2E275F03287
:0709CF0084E5F0F202093299
:0109D60022FE
:1004F500E47862F2120D53120C5CEF7864F2120D7F
:10050500317800EEF208EFF27862E2C394FE74806F
:100515009480400B120C5CEF7864F2E47862F27818
:1005250064E25407700204F27862E2C3947F748037
:10053500948050757864E230E01FE418F27863E245
:10054500FFC3941E74809480500F74042FF8E22426
:1005550002F27863E204F280E47864E230E11FE4B9
:1005650018F27863E2FFC3941E74809480500F7470
:10057500222FF8E22402F27863E204F280E4786440
:10058500E220E20302061DE418F27863E2FFC39459
:100595001E74809480400302061D74402FF8E224E7
:1005A50002F27863E204F280E17864E230E01FE46D
:1005B50018F27863E2FFC3941E74809480500F7420
:1005C500042FF8E224FEF27863E204F280E4786412
:1005D500E230E11FE418F27863E2FFC3941E7480F1
:1005E5009480500F74222FF8E224FEF27863E2041F
:1005F500F280E47864E230E21FE418F27863E2FF07
:10060500C3941E74809480500F74402FF8E224FE2A
:10061500F27863E204F280E47800E2FE08E2FF7C0F
:10062500007D641202C0EF2401120CED120D0A7850
:0F06350062E204F2120CA6EF64016003020503F7
:010644002293
:100B5A00120D53120D317800EEF208EFF2E47862CA
:100B6A00F27862E2C3941E74809480503C120C5C4A
:100B7A00AD07AC06ECC4F854F0C8EDC4540F48FFF6
:100B8A007862E2FB2404F8EFF2ED7802CEC313CECA
:100B9A0013D8F9FF74222BF8EFF27862E22440F8B6
:100BAA00EDF27862E204F280B8120CDC120D0A123D
:070BBA000CA6EF6401709C22
:010BC1002211
:100CA60020CD307802E204F2E2D394087480948076
:100CB6004002E4F27803E2FF7E00120DD57803E2EB
:100CC600FF7E0018E2FD120D757F787E00120CF192
:060CD6007F01227F0022D5
:100D310075BCC40000E5BC30E5FBAFBDEF75F00448
:100D4100A4FFE5BEC4131354037C002FFFEC35F060
:020D5100FE2280
:100BC200E4FFEFC3941E74809480501574042FF8D0
:100BD200E4F274222FF8E4F274402FF8E4F20F806A
:100BE200E143BA8043B20853B1F753CADF43C92085
:100BF20053CAEF43C91090FE15E04420F043BA8077
:0F0C020090FEA8743FF053BA7F75DE0F75BC806B
:010C110022C0
:090E2A00D2B3000000C2B30022A3
:090E3300D2B300C2B3000000229A
:100DF2007F027E0FC2B300001FEF60061EEE60F896
:020E020080FA74
:010E040022CB
:100D9600E4FEEEC39408748094805013EF30E705A8
:0F0DA600120E2A8003120E33EF25E0FF0E80E3BA
:010DB500221B
:0D0E0500120D96AF05120D96AF03020D966B
:100D0A00E4FCECC3941E74809480501874222CF86E
:100D1A00E2FF74042CF8E2FD74402CF8E2FB120E98
:070D2A00050C80DE020DF252
:100D5300E4FFEFC3941E74809480501574042FF83D
:100D6300E4F274222FF8E4F274402FF8E4F20F80D7
:010D7300E19E
:010D7400225C
:0A0E1F0000007F167E80DEFEDFFC7F
:010E290022A6
:100CDC007800E2FE08E2FF7C007D641202C0EF2483
:050CEC0005FFE43EFEDF
:040CF100AD07AC0699
:100CF500E4FBFAC3EB9DEA9C500A120E1F0BBB00E6
:040D0500010A80EF70
:010D090022C7
:0D0E1200E4F5C7F5C5F5C675C380F5C4222B
:040DB600AD07AC06D3
:100DBA0075C78075F50C75C501ECF5C3EDF5C475FD
:0B0DCA00C65A75C6A500AFC2020E128B
:100D7500AB07AA0675C78075F50C75C502EAF5C3FC
:100D8500EBF5C4AF058FC275C65A75C6A500020E30
:010D9500124B
:100DD500AD07AC0675C78075F50C75C503ECF5C395
:0D0DE500EDF5C475C65A75C6A500020E12C4
:100003000202ABE86480F8E933E83360110460F07E
:10001300ED33EC337009E8FCE9FDEAFEEBFF220463
:1000230060DED3EB9FEA9EE99DE8C2E78CF0C2F75E
:1000330095F0400CE8CCF8E9CDF9EACEFAEBCFFB2A
:1000430012027685D0F05804700320D5B3E804700B
:10005300075002B2D50202B592D5EC0460F7E4CCA6
:10006300C0E0C398F8603B94186008400DD0E0FBF3
:1000730002028DE4FBFAC9FC8028E830E406E4C9F7
:10008300FBE4CAFCE830E305E4C9CACBFCE8540747
:100093006010F8C3E913F9EA13FAEB13FBEC13FC52
:1000A300D8F130F52FC3E49CFCEF9BFFEE9AFEEDF5
:1000B30099FDD0E0FBEF4E4D4C701222DB030202A0
:1000C300B2EC2CFCEF33FFEE33FEED33FDED30E706
:1000D300EB02028DEF2BFFEE3AFEED39FDD0E0FB94
:1000E30050130BBB00030202B5ED13FDEE13FEEF3D
:0800F30013FFEC13FC02028D67
:1000FB00EC4D6011E8497017ED33EC3304600DE4FF
:10010B00FCFFFEFD22E933E8330470F80202AB1268
:10011B00027658046009E4CC248150062850090269
:10012B0002B52840030202B2C0E0EB4A7044B9802A
:10013B0006D0E0FB0202A1EF4E701CBD8008EBFF66
:10014B00EAFEE9FD80EBE98DF0A4FEE5F00201E4A7
:10015B00E9CDF9EAFEEBFFEF89F0A4FCE5F0CE89DF
:10016B00F0A42EFFE435F0CD89F0A42DFEE435F09C
:10017B008067EF4E7005BD80D780C3EF8BF0A4ACCA
:10018B00F0EE8BF0A42CFCE435F0F8EF8AF0A42C05
:10019B00E5F038FCE433CB8DF0A42CFCE5F03BF818
:1001AB00EE8AF0A42CFCE5F038F8E433CF89F0A408
:1001BB002CFCE5F038CF3400CE89F0A42FFFE5F00E
:1001CB003EFEE433C98DF0A42EFEE5F039CD8AF066
:1001DB00A42FFFE5F03EFEE43DFD33D0E0FB5007DE
:1001EB000BBB000F0202B5EC2CFCEF33FFEE33FE22
:0601FB00ED33FD02028D50
:1002010075F020800E75F010800575F0087D007E78
:10021100007F003392D530D503120315EC33401023
:10022100EF33FFEE33FEED33FDEC33FCD5F0ED2281
:0E023100E5F0247EA2D513CC92E7CDCEFF22BD
:10023F00EDD2E7CD33EC3392D524814006E4FFFEB7
:10024F00FDFC22FCE4CFCECDCC24E0501174FF8016
:10025F00EDC3CC13CCCD13CDCE13CECF13CF0470B3
:07026F00F030D5DE0203159B
:10027600E9D2E7C933E833F892D5EDD2E7CD33ECCE
:0702860033FC5002B2D52247
:10028D00EC30E7100FBF000C0EBE00080DBD0004D2
:10029D000BEB6014A2D5EB13FCED92E7FD2274FF7E
:1002AD00FCFDFEFF22E480F8A2D574FF13FC7D80D7
:0302BD00E480EFEB
:1009E300020AEDE493A3F8E493A34003F68001F233
:1009F30008DFF48029E493A3F85407240CC8C33315
:100A0300C4540F4420C8834004F456800146F6DFE3
:100A1300E4800B0102040810204080900E3CE47E29
:100A2300019360BCA3FF543F30E509541FFEE493D8
:100A3300A360010ECF54C025E060A840B8E493A39F
:100A4300FAE493A3F8E493A3C8C582C8CAC583CACA
:100A5300F0A3C8C582C8CAC583CADFE9DEE780BE82
:010E3F0000B2
:1002C000BC000BBE0029EF8DF084FFADF022E4CC22
:1002D000F875F008EF2FFFEE33FEEC33FCEE9DECEB
:1002E000984005FCEE9DFE0FD5F0E9E4CEFD22ED31
:1002F000F8F5F0EE8420D21CFEADF075F008EF2F7B
:10030000FFED33FD4007985006D5F0F222C398FD6B
:050310000FD5F0EA2208
:0E031500C3E49FFFE49EFEE49DFDE49CFC22F9
:100C5C00785E1203237810EC4D4E4F70047CA57D0A
:100C6C00A5C3EC13FCED13FDEE13FEEF13FF5010B8
:100C7C00EC64CCFCED644CFDEE644EFEEF64CEFFF8
:100C8C00D8DF785E12032FEE547FFE22785EEEF2F0
:0A0C9C00EF08F20874A5F208F22236
:0C032300E2FC08E2FD08E2FE08E2FF2216
:0C032F00ECF208EDF208EEF208EFF2220A
:00000001FF
